{
  "abi": [
    {
      "inputs": [],
      "stateMutability": "nonpayable",
      "type": "constructor"
    },
    {
      "anonymous": false,
      "inputs": [
        {
          "indexed": false,
          "internalType": "uint256",
          "name": "_datetime",
          "type": "uint256"
        },
        {
          "indexed": true,
          "internalType": "address",
          "name": "_tipper",
          "type": "address"
        },
        {
          "indexed": false,
          "internalType": "string",
          "name": "_name",
          "type": "string"
        },
        {
          "indexed": false,
          "internalType": "uint256",
          "name": "_amount",
          "type": "uint256"
        },
        {
          "indexed": false,
          "internalType": "string",
          "name": "_message",
          "type": "string"
        }
      ],
      "name": "NewCoffeeBought",
      "type": "event"
    },
    {
      "anonymous": false,
      "inputs": [
        {
          "indexed": false,
          "internalType": "uint256",
          "name": "_datetime",
          "type": "uint256"
        },
        {
          "indexed": false,
          "internalType": "uint256",
          "name": "_amount",
          "type": "uint256"
        }
      ],
      "name": "WithdrawnCoffees",
      "type": "event"
    },
    {
      "inputs": [],
      "name": "AAVE_V3_POOL",
      "outputs": [
        {
          "internalType": "contract IPool",
          "name": "",
          "type": "address"
        }
      ],
      "stateMutability": "view",
      "type": "function"
    },
    {
      "inputs": [],
      "name": "ETHDonations",
      "outputs": [
        {
          "internalType": "uint256",
          "name": "",
          "type": "uint256"
        }
      ],
      "stateMutability": "view",
      "type": "function"
    },
    {
      "inputs": [],
      "name": "WETH_ATOKEN",
      "outputs": [
        {
          "internalType": "contract IERC20",
          "name": "",
          "type": "address"
        }
      ],
      "stateMutability": "view",
      "type": "function"
    },
    {
      "inputs": [],
      "name": "WETH_GATEWAY",
      "outputs": [
        {
          "internalType": "contract IWETHGateway",
          "name": "",
          "type": "address"
        }
      ],
      "stateMutability": "view",
      "type": "function"
    },
    {
      "inputs": [
        {
          "internalType": "string",
          "name": "_name",
          "type": "string"
        },
        {
          "internalType": "string",
          "name": "_message",
          "type": "string"
        }
      ],
      "name": "buyCoffeeWithETH",
      "outputs": [],
      "stateMutability": "payable",
      "type": "function"
    },
    {
      "inputs": [
        {
          "internalType": "address",
          "name": "_newOwner",
          "type": "address"
        }
      ],
      "name": "changeOwner",
      "outputs": [],
      "stateMutability": "nonpayable",
      "type": "function"
    },
    {
      "inputs": [],
      "name": "checkBalanceETH",
      "outputs": [
        {
          "internalType": "uint256",
          "name": "",
          "type": "uint256"
        }
      ],
      "stateMutability": "view",
      "type": "function"
    },
    {
      "inputs": [],
      "name": "howMany",
      "outputs": [
        {
          "internalType": "uint256",
          "name": "",
          "type": "uint256"
        }
      ],
      "stateMutability": "view",
      "type": "function"
    },
    {
      "inputs": [
        {
          "internalType": "address",
          "name": "",
          "type": "address"
        }
      ],
      "name": "isKind",
      "outputs": [
        {
          "internalType": "bool",
          "name": "",
          "type": "bool"
        }
      ],
      "stateMutability": "view",
      "type": "function"
    },
    {
      "inputs": [
        {
          "internalType": "uint256",
          "name": "",
          "type": "uint256"
        }
      ],
      "name": "kindPeople",
      "outputs": [
        {
          "internalType": "address",
          "name": "",
          "type": "address"
        }
      ],
      "stateMutability": "view",
      "type": "function"
    },
    {
      "inputs": [],
      "name": "owner",
      "outputs": [
        {
          "internalType": "address payable",
          "name": "",
          "type": "address"
        }
      ],
      "stateMutability": "view",
      "type": "function"
    },
    {
      "inputs": [],
      "name": "withdrawETHAave",
      "outputs": [],
      "stateMutability": "nonpayable",
      "type": "function"
    }
  ],
  "bytecode": "608060405234801561001057600080fd5b50600080546001600160a01b03191633179055610a7b806100326000396000f3fe6080604052600436106100a75760003560e01c80638da5cb5b116100645780638da5cb5b146101a9578063a1feb687146101c9578063a616de21146101dc578063a6f9dae1146101fc578063ae5a98ba1461021c578063d578ed8d1461024457600080fd5b80630c67bac5146100ac5780631037ddd2146100c357806324674fb5146101085780633b30370514610148578063461287401461017057806362ab8cc114610194575b600080fd5b3480156100b857600080fd5b506100c1610259565b005b3480156100cf57600080fd5b506100f36100de36600461084d565b60016020526000908152604090205460ff1681565b60405190151581526020015b60405180910390f35b34801561011457600080fd5b506101307327b4692c93959048833f40702b22fe3578e7775981565b6040516001600160a01b0390911681526020016100ff565b34801561015457600080fd5b5061013073368eedf3f56ad10b9bc57eed4dac65b26bb667f681565b34801561017c57600080fd5b5061018660035481565b6040519081526020016100ff565b3480156101a057600080fd5b50600254610186565b3480156101b557600080fd5b50600054610130906001600160a01b031681565b6100c16101d73660046108c6565b610529565b3480156101e857600080fd5b506101306101f7366004610932565b6106dc565b34801561020857600080fd5b506100c161021736600461084d565b610706565b34801561022857600080fd5b5061013073d5b55d3ed89fda19124ceb5bab620328287b915d81565b34801561025057600080fd5b506101866107a0565b6000546001600160a01b0316331461028c5760405162461bcd60e51b81526004016102839061094b565b60405180910390fd5b6000600354116102d45760405162461bcd60e51b81526020600482015260136024820152724e6f7468696e6720746f20776974686472617760681b6044820152606401610283565b600060038190556040516370a0823160e01b81523060048201527327b4692c93959048833f40702b22fe3578e77759906370a0823190602401602060405180830381865afa15801561032a573d6000803e3d6000fd5b505050506040513d601f19601f8201168201806040525081019061034e919061097b565b6103589047610994565b6040516370a0823160e01b81523060048201529091506000907327b4692c93959048833f40702b22fe3578e77759906370a0823190602401602060405180830381865afa1580156103ad573d6000803e3d6000fd5b505050506040513d601f19601f820116820180604052508101906103d1919061097b565b60405163095ea7b360e01b815273368eedf3f56ad10b9bc57eed4dac65b26bb667f66004820152602481018290529091507327b4692c93959048833f40702b22fe3578e777599063095ea7b3906044016020604051808303816000875af1158015610440573d6000803e3d6000fd5b505050506040513d601f19601f8201168201806040525081019061046491906109ba565b50604051630402806960e51b815273368eedf3f56ad10b9bc57eed4dac65b26bb667f66004820152600019602482015233604482015273d5b55d3ed89fda19124ceb5bab620328287b915d906380500d2090606401600060405180830381600087803b1580156104d357600080fd5b505af11580156104e7573d6000803e3d6000fd5b505060408051428152602081018690527fbb050dd3915d12b5b3266ffb8bdd26b8d8cf52d2c5f555cd5fe3553881338666935001905060405180910390a15050565b600034116105795760405162461bcd60e51b815260206004820152601d60248201527f56616c7565206d7573742062652067726561746572207468616e20302e0000006044820152606401610283565b346003600082825461058b9190610994565b909155505060405163474cf53d60e01b815273368eedf3f56ad10b9bc57eed4dac65b26bb667f660048201523060248201526000604482015273d5b55d3ed89fda19124ceb5bab620328287b915d9063474cf53d9034906064016000604051808303818588803b1580156105fe57600080fd5b505af1158015610612573d6000803e3d6000fd5b50503360009081526001602052604090205460ff16925061068b915050573360008181526001602081905260408220805460ff1916821790556002805491820181559091527f405787fa12a823e0f2b7631cc41b3ba8828b3321ca811111fa75cd3aa3bb5ace0180546001600160a01b03191690911790555b336001600160a01b03167fa471f5625833d2244d19f4700169d32dfab22150237be735c4f3078077c08f474286863487876040516106ce96959493929190610a05565b60405180910390a250505050565b600281815481106106ec57600080fd5b6000918252602090912001546001600160a01b0316905081565b6000546001600160a01b031633146107305760405162461bcd60e51b81526004016102839061094b565b6001600160a01b03811661077e5760405162461bcd60e51b815260206004820152601560248201527443616e6e6f7420626520612030206164647265737360581b6044820152606401610283565b600080546001600160a01b0319166001600160a01b0392909216919091179055565b600080546001600160a01b031633146107cb5760405162461bcd60e51b81526004016102839061094b565b6040516370a0823160e01b81523060048201527327b4692c93959048833f40702b22fe3578e77759906370a0823190602401602060405180830381865afa15801561081a573d6000803e3d6000fd5b505050506040513d601f19601f8201168201806040525081019061083e919061097b565b6108489047610994565b905090565b60006020828403121561085f57600080fd5b81356001600160a01b038116811461087657600080fd5b9392505050565b60008083601f84011261088f57600080fd5b50813567ffffffffffffffff8111156108a757600080fd5b6020830191508360208285010111156108bf57600080fd5b9250929050565b600080600080604085870312156108dc57600080fd5b843567ffffffffffffffff808211156108f457600080fd5b6109008883890161087d565b9096509450602087013591508082111561091957600080fd5b506109268782880161087d565b95989497509550505050565b60006020828403121561094457600080fd5b5035919050565b6020808252601690820152752cb7ba9030b932903737ba103a34329037bbb732b91760511b604082015260600190565b60006020828403121561098d57600080fd5b5051919050565b600082198211156109b557634e487b7160e01b600052601160045260246000fd5b500190565b6000602082840312156109cc57600080fd5b8151801515811461087657600080fd5b81835281816020850137506000828201602090810191909152601f909101601f19169091010190565b868152608060208201526000610a1f6080830187896109dc565b8560408401528281036060840152610a388185876109dc565b999850505050505050505056fea2646970667358221220c511a5a21d80e8a86611fb9d1c5eec219d82387d66d1810b9778f8cc31f02ecb64736f6c634300080c0033",
  "bytecodeSha1": "3dac450e625a0ccf8fbe3e4f24b4b2788db2003b",
  "compiler": {
    "evm_version": "istanbul",
    "optimizer": {
      "enabled": true,
      "runs": 200
    },
    "version": "0.8.12+commit.f00d7308"
  },
  "contractName": "BuyMeACoffeeV2_1",
  "language": "Solidity",
  "natspec": {
    "kind": "dev",
    "methods": {},
    "version": 1
  },
  "opcodes": "PUSH1 0x80 PUSH1 0x40 MSTORE PUSH1 0x4 CALLDATASIZE LT PUSH2 0xA7 JUMPI PUSH1 0x0 CALLDATALOAD PUSH1 0xE0 SHR DUP1 PUSH4 0x8DA5CB5B GT PUSH2 0x64 JUMPI DUP1 PUSH4 0x8DA5CB5B EQ PUSH2 0x1A9 JUMPI DUP1 PUSH4 0xA1FEB687 EQ PUSH2 0x1C9 JUMPI DUP1 PUSH4 0xA616DE21 EQ PUSH2 0x1DC JUMPI DUP1 PUSH4 0xA6F9DAE1 EQ PUSH2 0x1FC JUMPI DUP1 PUSH4 0xAE5A98BA EQ PUSH2 0x21C JUMPI DUP1 PUSH4 0xD578ED8D EQ PUSH2 0x244 JUMPI PUSH1 0x0 DUP1 REVERT JUMPDEST DUP1 PUSH4 0xC67BAC5 EQ PUSH2 0xAC JUMPI DUP1 PUSH4 0x1037DDD2 EQ PUSH2 0xC3 JUMPI DUP1 PUSH4 0x24674FB5 EQ PUSH2 0x108 JUMPI DUP1 PUSH4 0x3B303705 EQ PUSH2 0x148 JUMPI DUP1 PUSH4 0x46128740 EQ PUSH2 0x170 JUMPI DUP1 PUSH4 0x62AB8CC1 EQ PUSH2 0x194 JUMPI JUMPDEST PUSH1 0x0 DUP1 REVERT JUMPDEST CALLVALUE DUP1 ISZERO PUSH2 0xB8 JUMPI PUSH1 0x0 DUP1 REVERT JUMPDEST POP PUSH2 0xC1 PUSH2 0x259 JUMP JUMPDEST STOP JUMPDEST CALLVALUE DUP1 ISZERO PUSH2 0xCF JUMPI PUSH1 0x0 DUP1 REVERT JUMPDEST POP PUSH2 0xF3 PUSH2 0xDE CALLDATASIZE PUSH1 0x4 PUSH2 0x84D JUMP JUMPDEST PUSH1 0x1 PUSH1 0x20 MSTORE PUSH1 0x0 SWAP1 DUP2 MSTORE PUSH1 0x40 SWAP1 KECCAK256 SLOAD PUSH1 0xFF AND DUP2 JUMP JUMPDEST PUSH1 0x40 MLOAD SWAP1 ISZERO ISZERO DUP2 MSTORE PUSH1 0x20 ADD JUMPDEST PUSH1 0x40 MLOAD DUP1 SWAP2 SUB SWAP1 RETURN JUMPDEST CALLVALUE DUP1 ISZERO PUSH2 0x114 JUMPI PUSH1 0x0 DUP1 REVERT JUMPDEST POP PUSH2 0x130 PUSH20 0x27B4692C93959048833F40702B22FE3578E77759 DUP2 JUMP JUMPDEST PUSH1 0x40 MLOAD PUSH1 0x1 PUSH1 0x1 PUSH1 0xA0 SHL SUB SWAP1 SWAP2 AND DUP2 MSTORE PUSH1 0x20 ADD PUSH2 0xFF JUMP JUMPDEST CALLVALUE DUP1 ISZERO PUSH2 0x154 JUMPI PUSH1 0x0 DUP1 REVERT JUMPDEST POP PUSH2 0x130 PUSH20 0x368EEDF3F56AD10B9BC57EED4DAC65B26BB667F6 DUP2 JUMP JUMPDEST CALLVALUE DUP1 ISZERO PUSH2 0x17C JUMPI PUSH1 0x0 DUP1 REVERT JUMPDEST POP PUSH2 0x186 PUSH1 0x3 SLOAD DUP2 JUMP JUMPDEST PUSH1 0x40 MLOAD SWAP1 DUP2 MSTORE PUSH1 0x20 ADD PUSH2 0xFF JUMP JUMPDEST CALLVALUE DUP1 ISZERO PUSH2 0x1A0 JUMPI PUSH1 0x0 DUP1 REVERT JUMPDEST POP PUSH1 0x2 SLOAD PUSH2 0x186 JUMP JUMPDEST CALLVALUE DUP1 ISZERO PUSH2 0x1B5 JUMPI PUSH1 0x0 DUP1 REVERT JUMPDEST POP PUSH1 0x0 SLOAD PUSH2 0x130 SWAP1 PUSH1 0x1 PUSH1 0x1 PUSH1 0xA0 SHL SUB AND DUP2 JUMP JUMPDEST PUSH2 0xC1 PUSH2 0x1D7 CALLDATASIZE PUSH1 0x4 PUSH2 0x8C6 JUMP JUMPDEST PUSH2 0x529 JUMP JUMPDEST CALLVALUE DUP1 ISZERO PUSH2 0x1E8 JUMPI PUSH1 0x0 DUP1 REVERT JUMPDEST POP PUSH2 0x130 PUSH2 0x1F7 CALLDATASIZE PUSH1 0x4 PUSH2 0x932 JUMP JUMPDEST PUSH2 0x6DC JUMP JUMPDEST CALLVALUE DUP1 ISZERO PUSH2 0x208 JUMPI PUSH1 0x0 DUP1 REVERT JUMPDEST POP PUSH2 0xC1 PUSH2 0x217 CALLDATASIZE PUSH1 0x4 PUSH2 0x84D JUMP JUMPDEST PUSH2 0x706 JUMP JUMPDEST CALLVALUE DUP1 ISZERO PUSH2 0x228 JUMPI PUSH1 0x0 DUP1 REVERT JUMPDEST POP PUSH2 0x130 PUSH20 0xD5B55D3ED89FDA19124CEB5BAB620328287B915D DUP2 JUMP JUMPDEST CALLVALUE DUP1 ISZERO PUSH2 0x250 JUMPI PUSH1 0x0 DUP1 REVERT JUMPDEST POP PUSH2 0x186 PUSH2 0x7A0 JUMP JUMPDEST PUSH1 0x0 SLOAD PUSH1 0x1 PUSH1 0x1 PUSH1 0xA0 SHL SUB AND CALLER EQ PUSH2 0x28C JUMPI PUSH1 0x40 MLOAD PUSH3 0x461BCD PUSH1 0xE5 SHL DUP2 MSTORE PUSH1 0x4 ADD PUSH2 0x283 SWAP1 PUSH2 0x94B JUMP JUMPDEST PUSH1 0x40 MLOAD DUP1 SWAP2 SUB SWAP1 REVERT JUMPDEST PUSH1 0x0 PUSH1 0x3 SLOAD GT PUSH2 0x2D4 JUMPI PUSH1 0x40 MLOAD PUSH3 0x461BCD PUSH1 0xE5 SHL DUP2 MSTORE PUSH1 0x20 PUSH1 0x4 DUP3 ADD MSTORE PUSH1 0x13 PUSH1 0x24 DUP3 ADD MSTORE PUSH19 0x4E6F7468696E6720746F207769746864726177 PUSH1 0x68 SHL PUSH1 0x44 DUP3 ADD MSTORE PUSH1 0x64 ADD PUSH2 0x283 JUMP JUMPDEST PUSH1 0x0 PUSH1 0x3 DUP2 SWAP1 SSTORE PUSH1 0x40 MLOAD PUSH4 0x70A08231 PUSH1 0xE0 SHL DUP2 MSTORE ADDRESS PUSH1 0x4 DUP3 ADD MSTORE PUSH20 0x27B4692C93959048833F40702B22FE3578E77759 SWAP1 PUSH4 0x70A08231 SWAP1 PUSH1 0x24 ADD PUSH1 0x20 PUSH1 0x40 MLOAD DUP1 DUP4 SUB DUP2 DUP7 GAS STATICCALL ISZERO DUP1 ISZERO PUSH2 0x32A JUMPI RETURNDATASIZE PUSH1 0x0 DUP1 RETURNDATACOPY RETURNDATASIZE PUSH1 0x0 REVERT JUMPDEST POP POP POP POP PUSH1 0x40 MLOAD RETURNDATASIZE PUSH1 0x1F NOT PUSH1 0x1F DUP3 ADD AND DUP3 ADD DUP1 PUSH1 0x40 MSTORE POP DUP2 ADD SWAP1 PUSH2 0x34E SWAP2 SWAP1 PUSH2 0x97B JUMP JUMPDEST PUSH2 0x358 SWAP1 SELFBALANCE PUSH2 0x994 JUMP JUMPDEST PUSH1 0x40 MLOAD PUSH4 0x70A08231 PUSH1 0xE0 SHL DUP2 MSTORE ADDRESS PUSH1 0x4 DUP3 ADD MSTORE SWAP1 SWAP2 POP PUSH1 0x0 SWAP1 PUSH20 0x27B4692C93959048833F40702B22FE3578E77759 SWAP1 PUSH4 0x70A08231 SWAP1 PUSH1 0x24 ADD PUSH1 0x20 PUSH1 0x40 MLOAD DUP1 DUP4 SUB DUP2 DUP7 GAS STATICCALL ISZERO DUP1 ISZERO PUSH2 0x3AD JUMPI RETURNDATASIZE PUSH1 0x0 DUP1 RETURNDATACOPY RETURNDATASIZE PUSH1 0x0 REVERT JUMPDEST POP POP POP POP PUSH1 0x40 MLOAD RETURNDATASIZE PUSH1 0x1F NOT PUSH1 0x1F DUP3 ADD AND DUP3 ADD DUP1 PUSH1 0x40 MSTORE POP DUP2 ADD SWAP1 PUSH2 0x3D1 SWAP2 SWAP1 PUSH2 0x97B JUMP JUMPDEST PUSH1 0x40 MLOAD PUSH4 0x95EA7B3 PUSH1 0xE0 SHL DUP2 MSTORE PUSH20 0x368EEDF3F56AD10B9BC57EED4DAC65B26BB667F6 PUSH1 0x4 DUP3 ADD MSTORE PUSH1 0x24 DUP2 ADD DUP3 SWAP1 MSTORE SWAP1 SWAP2 POP PUSH20 0x27B4692C93959048833F40702B22FE3578E77759 SWAP1 PUSH4 0x95EA7B3 SWAP1 PUSH1 0x44 ADD PUSH1 0x20 PUSH1 0x40 MLOAD DUP1 DUP4 SUB DUP2 PUSH1 0x0 DUP8 GAS CALL ISZERO DUP1 ISZERO PUSH2 0x440 JUMPI RETURNDATASIZE PUSH1 0x0 DUP1 RETURNDATACOPY RETURNDATASIZE PUSH1 0x0 REVERT JUMPDEST POP POP POP POP PUSH1 0x40 MLOAD RETURNDATASIZE PUSH1 0x1F NOT PUSH1 0x1F DUP3 ADD AND DUP3 ADD DUP1 PUSH1 0x40 MSTORE POP DUP2 ADD SWAP1 PUSH2 0x464 SWAP2 SWAP1 PUSH2 0x9BA JUMP JUMPDEST POP PUSH1 0x40 MLOAD PUSH4 0x4028069 PUSH1 0xE5 SHL DUP2 MSTORE PUSH20 0x368EEDF3F56AD10B9BC57EED4DAC65B26BB667F6 PUSH1 0x4 DUP3 ADD MSTORE PUSH1 0x0 NOT PUSH1 0x24 DUP3 ADD MSTORE CALLER PUSH1 0x44 DUP3 ADD MSTORE PUSH20 0xD5B55D3ED89FDA19124CEB5BAB620328287B915D SWAP1 PUSH4 0x80500D20 SWAP1 PUSH1 0x64 ADD PUSH1 0x0 PUSH1 0x40 MLOAD DUP1 DUP4 SUB DUP2 PUSH1 0x0 DUP8 DUP1 EXTCODESIZE ISZERO DUP1 ISZERO PUSH2 0x4D3 JUMPI PUSH1 0x0 DUP1 REVERT JUMPDEST POP GAS CALL ISZERO DUP1 ISZERO PUSH2 0x4E7 JUMPI RETURNDATASIZE PUSH1 0x0 DUP1 RETURNDATACOPY RETURNDATASIZE PUSH1 0x0 REVERT JUMPDEST POP POP PUSH1 0x40 DUP1 MLOAD TIMESTAMP DUP2 MSTORE PUSH1 0x20 DUP2 ADD DUP7 SWAP1 MSTORE PUSH32 0xBB050DD3915D12B5B3266FFB8BDD26B8D8CF52D2C5F555CD5FE3553881338666 SWAP4 POP ADD SWAP1 POP PUSH1 0x40 MLOAD DUP1 SWAP2 SUB SWAP1 LOG1 POP POP JUMP JUMPDEST PUSH1 0x0 CALLVALUE GT PUSH2 0x579 JUMPI PUSH1 0x40 MLOAD PUSH3 0x461BCD PUSH1 0xE5 SHL DUP2 MSTORE PUSH1 0x20 PUSH1 0x4 DUP3 ADD MSTORE PUSH1 0x1D PUSH1 0x24 DUP3 ADD MSTORE PUSH32 0x56616C7565206D7573742062652067726561746572207468616E20302E000000 PUSH1 0x44 DUP3 ADD MSTORE PUSH1 0x64 ADD PUSH2 0x283 JUMP JUMPDEST CALLVALUE PUSH1 0x3 PUSH1 0x0 DUP3 DUP3 SLOAD PUSH2 0x58B SWAP2 SWAP1 PUSH2 0x994 JUMP JUMPDEST SWAP1 SWAP2 SSTORE POP POP PUSH1 0x40 MLOAD PUSH4 0x474CF53D PUSH1 0xE0 SHL DUP2 MSTORE PUSH20 0x368EEDF3F56AD10B9BC57EED4DAC65B26BB667F6 PUSH1 0x4 DUP3 ADD MSTORE ADDRESS PUSH1 0x24 DUP3 ADD MSTORE PUSH1 0x0 PUSH1 0x44 DUP3 ADD MSTORE PUSH20 0xD5B55D3ED89FDA19124CEB5BAB620328287B915D SWAP1 PUSH4 0x474CF53D SWAP1 CALLVALUE SWAP1 PUSH1 0x64 ADD PUSH1 0x0 PUSH1 0x40 MLOAD DUP1 DUP4 SUB DUP2 DUP6 DUP9 DUP1 EXTCODESIZE ISZERO DUP1 ISZERO PUSH2 0x5FE JUMPI PUSH1 0x0 DUP1 REVERT JUMPDEST POP GAS CALL ISZERO DUP1 ISZERO PUSH2 0x612 JUMPI RETURNDATASIZE PUSH1 0x0 DUP1 RETURNDATACOPY RETURNDATASIZE PUSH1 0x0 REVERT JUMPDEST POP POP CALLER PUSH1 0x0 SWAP1 DUP2 MSTORE PUSH1 0x1 PUSH1 0x20 MSTORE PUSH1 0x40 SWAP1 KECCAK256 SLOAD PUSH1 0xFF AND SWAP3 POP PUSH2 0x68B SWAP2 POP POP JUMPI CALLER PUSH1 0x0 DUP2 DUP2 MSTORE PUSH1 0x1 PUSH1 0x20 DUP2 SWAP1 MSTORE PUSH1 0x40 DUP3 KECCAK256 DUP1 SLOAD PUSH1 0xFF NOT AND DUP3 OR SWAP1 SSTORE PUSH1 0x2 DUP1 SLOAD SWAP2 DUP3 ADD DUP2 SSTORE SWAP1 SWAP2 MSTORE PUSH32 0x405787FA12A823E0F2B7631CC41B3BA8828B3321CA811111FA75CD3AA3BB5ACE ADD DUP1 SLOAD PUSH1 0x1 PUSH1 0x1 PUSH1 0xA0 SHL SUB NOT AND SWAP1 SWAP2 OR SWAP1 SSTORE JUMPDEST CALLER PUSH1 0x1 PUSH1 0x1 PUSH1 0xA0 SHL SUB AND PUSH32 0xA471F5625833D2244D19F4700169D32DFAB22150237BE735C4F3078077C08F47 TIMESTAMP DUP7 DUP7 CALLVALUE DUP8 DUP8 PUSH1 0x40 MLOAD PUSH2 0x6CE SWAP7 SWAP6 SWAP5 SWAP4 SWAP3 SWAP2 SWAP1 PUSH2 0xA05 JUMP JUMPDEST PUSH1 0x40 MLOAD DUP1 SWAP2 SUB SWAP1 LOG2 POP POP POP POP JUMP JUMPDEST PUSH1 0x2 DUP2 DUP2 SLOAD DUP2 LT PUSH2 0x6EC JUMPI PUSH1 0x0 DUP1 REVERT JUMPDEST PUSH1 0x0 SWAP2 DUP3 MSTORE PUSH1 0x20 SWAP1 SWAP2 KECCAK256 ADD SLOAD PUSH1 0x1 PUSH1 0x1 PUSH1 0xA0 SHL SUB AND SWAP1 POP DUP2 JUMP JUMPDEST PUSH1 0x0 SLOAD PUSH1 0x1 PUSH1 0x1 PUSH1 0xA0 SHL SUB AND CALLER EQ PUSH2 0x730 JUMPI PUSH1 0x40 MLOAD PUSH3 0x461BCD PUSH1 0xE5 SHL DUP2 MSTORE PUSH1 0x4 ADD PUSH2 0x283 SWAP1 PUSH2 0x94B JUMP JUMPDEST PUSH1 0x1 PUSH1 0x1 PUSH1 0xA0 SHL SUB DUP2 AND PUSH2 0x77E JUMPI PUSH1 0x40 MLOAD PUSH3 0x461BCD PUSH1 0xE5 SHL DUP2 MSTORE PUSH1 0x20 PUSH1 0x4 DUP3 ADD MSTORE PUSH1 0x15 PUSH1 0x24 DUP3 ADD MSTORE PUSH21 0x43616E6E6F74206265206120302061646472657373 PUSH1 0x58 SHL PUSH1 0x44 DUP3 ADD MSTORE PUSH1 0x64 ADD PUSH2 0x283 JUMP JUMPDEST PUSH1 0x0 DUP1 SLOAD PUSH1 0x1 PUSH1 0x1 PUSH1 0xA0 SHL SUB NOT AND PUSH1 0x1 PUSH1 0x1 PUSH1 0xA0 SHL SUB SWAP3 SWAP1 SWAP3 AND SWAP2 SWAP1 SWAP2 OR SWAP1 SSTORE JUMP JUMPDEST PUSH1 0x0 DUP1 SLOAD PUSH1 0x1 PUSH1 0x1 PUSH1 0xA0 SHL SUB AND CALLER EQ PUSH2 0x7CB JUMPI PUSH1 0x40 MLOAD PUSH3 0x461BCD PUSH1 0xE5 SHL DUP2 MSTORE PUSH1 0x4 ADD PUSH2 0x283 SWAP1 PUSH2 0x94B JUMP JUMPDEST PUSH1 0x40 MLOAD PUSH4 0x70A08231 PUSH1 0xE0 SHL DUP2 MSTORE ADDRESS PUSH1 0x4 DUP3 ADD MSTORE PUSH20 0x27B4692C93959048833F40702B22FE3578E77759 SWAP1 PUSH4 0x70A08231 SWAP1 PUSH1 0x24 ADD PUSH1 0x20 PUSH1 0x40 MLOAD DUP1 DUP4 SUB DUP2 DUP7 GAS STATICCALL ISZERO DUP1 ISZERO PUSH2 0x81A JUMPI RETURNDATASIZE PUSH1 0x0 DUP1 RETURNDATACOPY RETURNDATASIZE PUSH1 0x0 REVERT JUMPDEST POP POP POP POP PUSH1 0x40 MLOAD RETURNDATASIZE PUSH1 0x1F NOT PUSH1 0x1F DUP3 ADD AND DUP3 ADD DUP1 PUSH1 0x40 MSTORE POP DUP2 ADD SWAP1 PUSH2 0x83E SWAP2 SWAP1 PUSH2 0x97B JUMP JUMPDEST PUSH2 0x848 SWAP1 SELFBALANCE PUSH2 0x994 JUMP JUMPDEST SWAP1 POP SWAP1 JUMP JUMPDEST PUSH1 0x0 PUSH1 0x20 DUP3 DUP5 SUB SLT ISZERO PUSH2 0x85F JUMPI PUSH1 0x0 DUP1 REVERT JUMPDEST DUP2 CALLDATALOAD PUSH1 0x1 PUSH1 0x1 PUSH1 0xA0 SHL SUB DUP2 AND DUP2 EQ PUSH2 0x876 JUMPI PUSH1 0x0 DUP1 REVERT JUMPDEST SWAP4 SWAP3 POP POP POP JUMP JUMPDEST PUSH1 0x0 DUP1 DUP4 PUSH1 0x1F DUP5 ADD SLT PUSH2 0x88F JUMPI PUSH1 0x0 DUP1 REVERT JUMPDEST POP DUP2 CALLDATALOAD PUSH8 0xFFFFFFFFFFFFFFFF DUP2 GT ISZERO PUSH2 0x8A7 JUMPI PUSH1 0x0 DUP1 REVERT JUMPDEST PUSH1 0x20 DUP4 ADD SWAP2 POP DUP4 PUSH1 0x20 DUP3 DUP6 ADD ADD GT ISZERO PUSH2 0x8BF JUMPI PUSH1 0x0 DUP1 REVERT JUMPDEST SWAP3 POP SWAP3 SWAP1 POP JUMP JUMPDEST PUSH1 0x0 DUP1 PUSH1 0x0 DUP1 PUSH1 0x40 DUP6 DUP8 SUB SLT ISZERO PUSH2 0x8DC JUMPI PUSH1 0x0 DUP1 REVERT JUMPDEST DUP5 CALLDATALOAD PUSH8 0xFFFFFFFFFFFFFFFF DUP1 DUP3 GT ISZERO PUSH2 0x8F4 JUMPI PUSH1 0x0 DUP1 REVERT JUMPDEST PUSH2 0x900 DUP9 DUP4 DUP10 ADD PUSH2 0x87D JUMP JUMPDEST SWAP1 SWAP7 POP SWAP5 POP PUSH1 0x20 DUP8 ADD CALLDATALOAD SWAP2 POP DUP1 DUP3 GT ISZERO PUSH2 0x919 JUMPI PUSH1 0x0 DUP1 REVERT JUMPDEST POP PUSH2 0x926 DUP8 DUP3 DUP9 ADD PUSH2 0x87D JUMP JUMPDEST SWAP6 SWAP9 SWAP5 SWAP8 POP SWAP6 POP POP POP POP JUMP JUMPDEST PUSH1 0x0 PUSH1 0x20 DUP3 DUP5 SUB SLT ISZERO PUSH2 0x944 JUMPI PUSH1 0x0 DUP1 REVERT JUMPDEST POP CALLDATALOAD SWAP2 SWAP1 POP JUMP JUMPDEST PUSH1 0x20 DUP1 DUP3 MSTORE PUSH1 0x16 SWAP1 DUP3 ADD MSTORE PUSH22 0x2CB7BA9030B932903737BA103A34329037BBB732B917 PUSH1 0x51 SHL PUSH1 0x40 DUP3 ADD MSTORE PUSH1 0x60 ADD SWAP1 JUMP JUMPDEST PUSH1 0x0 PUSH1 0x20 DUP3 DUP5 SUB SLT ISZERO PUSH2 0x98D JUMPI PUSH1 0x0 DUP1 REVERT JUMPDEST POP MLOAD SWAP2 SWAP1 POP JUMP JUMPDEST PUSH1 0x0 DUP3 NOT DUP3 GT ISZERO PUSH2 0x9B5 JUMPI PUSH4 0x4E487B71 PUSH1 0xE0 SHL PUSH1 0x0 MSTORE PUSH1 0x11 PUSH1 0x4 MSTORE PUSH1 0x24 PUSH1 0x0 REVERT JUMPDEST POP ADD SWAP1 JUMP JUMPDEST PUSH1 0x0 PUSH1 0x20 DUP3 DUP5 SUB SLT ISZERO PUSH2 0x9CC JUMPI PUSH1 0x0 DUP1 REVERT JUMPDEST DUP2 MLOAD DUP1 ISZERO ISZERO DUP2 EQ PUSH2 0x876 JUMPI PUSH1 0x0 DUP1 REVERT JUMPDEST DUP2 DUP4 MSTORE DUP2 DUP2 PUSH1 0x20 DUP6 ADD CALLDATACOPY POP PUSH1 0x0 DUP3 DUP3 ADD PUSH1 0x20 SWAP1 DUP2 ADD SWAP2 SWAP1 SWAP2 MSTORE PUSH1 0x1F SWAP1 SWAP2 ADD PUSH1 0x1F NOT AND SWAP1 SWAP2 ADD ADD SWAP1 JUMP JUMPDEST DUP7 DUP2 MSTORE PUSH1 0x80 PUSH1 0x20 DUP3 ADD MSTORE PUSH1 0x0 PUSH2 0xA1F PUSH1 0x80 DUP4 ADD DUP8 DUP10 PUSH2 0x9DC JUMP JUMPDEST DUP6 PUSH1 0x40 DUP5 ADD MSTORE DUP3 DUP2 SUB PUSH1 0x60 DUP5 ADD MSTORE PUSH2 0xA38 DUP2 DUP6 DUP8 PUSH2 0x9DC JUMP JUMPDEST SWAP10 SWAP9 POP POP POP POP POP POP POP POP POP JUMP INVALID LOG2 PUSH5 0x6970667358 0x22 SLT KECCAK256 0xC5 GT 0xA5 LOG2 SAR DUP1 0xE8 0xA8 PUSH7 0x11FB9D1C5EEC21 SWAP14 DUP3 CODESIZE PUSH30 0x66D1810B9778F8CC31F02ECB64736F6C634300080C003300000000000000 ",
  "sha1": "3cccf26bca85b2bf627571f79a46b4fb1865c28b",
  "source": "// SPDX-License-Identifier: MIT\n\npragma solidity 0.8.12;\n\nimport \"../interfaces/IERC20.sol\";\nimport \"../interfaces/IPool.sol\";\nimport \"../interfaces/IWETHGateway.sol\";\nimport \"../interfaces/AggregatorV3Interface.sol\";\n\n// deployed address: 0x364cbfd51BbA1009F76201F69FF85D315C2ACFeA\n// Goerli Testnet Contract\ncontract BuyMeACoffeeV2_1 {\n    // owner\n    address payable public owner;\n\n    // AAVE Pool Address - Goerli (Pool-Proxy-Aave)\n    IPool public constant AAVE_V3_POOL =\n        IPool(0x368EedF3f56ad10b9bC57eed4Dac65B26Bb667f6);\n    // AAVE WETH Gateway Address - Goerli\n    IWETHGateway public constant WETH_GATEWAY =\n        IWETHGateway(0xd5B55D3Ed89FDa19124ceB5baB620328287b915d);\n\n    IERC20 public constant WETH_ATOKEN =\n        IERC20(0x27B4692C93959048833f40702b22FE3578E77759);\n\n    // Chainlink Goerli Price Feed\n    //AggregatorV3Interface public constant ETHUSD_PRICE_FEED = AggregatorV3Interface(0x);\n\n    // Aave Goerli Oracle - returns the price of the underlying asset in the base currency\n    //address constant AAVE_ORACLE = 0x5bed0810073cc9f0DacF73C648202249E87eF6cB;\n\n    // mapping of people who donated\n    mapping(address => bool) public isKind;\n    // array of people who donated\n    address[] public kindPeople;\n\n    // donations\n    uint256 public ETHDonations;\n\n    // event for each time a donation is made\n    event NewCoffeeBought(\n        uint256 _datetime,\n        address indexed _tipper,\n        string _name,\n        uint256 _amount,\n        string _message\n    );\n\n    // event for when donations are withdrawn from contract\n    event WithdrawnCoffees(uint256 _datetime, uint256 _amount);\n\n    // modifier to prevent others from executing certain functions\n    modifier onlyOwner() {\n        require(msg.sender == owner, \"You are not the owner.\");\n        _;\n    }\n\n    // initialising the owner\n    constructor() {\n        owner = payable(msg.sender);\n    }\n\n    // buy coffee with ETH\n    function buyCoffeeWithETH(string calldata _name, string calldata _message)\n        external\n        payable\n    {\n        require(msg.value > 0, \"Value must be greater than 0.\");\n        // updating total ETH donations\n        ETHDonations += msg.value;\n\n        // transferring eth to aave\n        WETH_GATEWAY.depositETH{value: msg.value}(\n            address(AAVE_V3_POOL),\n            address(this),\n            0\n        );\n\n        // if statement for first time donors\n        if (!isKind[msg.sender]) {\n            // updating mapping to true for msg.sender\n            isKind[msg.sender] = true;\n            // adding msg.sender to kindPeople array\n            kindPeople.push(msg.sender);\n        }\n\n        // emitting event\n        emit NewCoffeeBought(\n            block.timestamp,\n            msg.sender,\n            _name,\n            msg.value,\n            _message\n        );\n    }\n\n    // check how many people tipped\n    function howMany() external view returns (uint256) {\n        return kindPeople.length;\n    }\n\n    // check balance of ETH + aWETH\n    function checkBalanceETH() external view onlyOwner returns (uint256) {\n        return address(this).balance + WETH_ATOKEN.balanceOf(address(this));\n\n        // could also return the usd balance using convert function with chainlink data feeds\n    }\n\n    // withdraw ETH\n    function withdrawETHAave() external onlyOwner {\n        // making sure there is something to withdraw\n        require(ETHDonations > 0, \"Nothing to withdraw\");\n        // updating the state variable\n        ETHDonations = 0;\n\n        // calculating total that will be withdrawn\n        uint256 amountWithdrawing = address(this).balance +\n            WETH_ATOKEN.balanceOf(address(this));\n\n        // calculating the amount of aWETH earned\n        uint256 aWETHBalance = WETH_ATOKEN.balanceOf(address(this));\n        // approving the gateway to spend the aWETH\n        WETH_ATOKEN.approve(address(AAVE_V3_POOL), aWETHBalance);\n\n        // withdrawing the interest and ETH + sending it to owner\n        WETH_GATEWAY.withdrawETH(\n            address(AAVE_V3_POOL),\n            type(uint256).max,\n            msg.sender\n        );\n\n        // emitting event\n        emit WithdrawnCoffees(block.timestamp, amountWithdrawing);\n    }\n\n    // change address of owner\n    function changeOwner(address _newOwner) external onlyOwner {\n        require(_newOwner != address(0), \"Cannot be a 0 address\");\n        owner = payable(_newOwner);\n    }\n\n    /*** Chainlink Data Feeds interaction - Goerli testnet \n    // functions to interact with chainlink data feed\n    // converting the amount of ETH to USD\n    function getConversionRate(uint256 ethAmount)\n        public\n        view\n        returns (uint256)\n    {\n        uint256 ethPrice = getPrice();\n        uint256 ethAmountInUSD = (ethPrice * ethAmount) / 1e18;\n        return ethAmountInUSD;\n    }\n\n    // function to get the price of the ETH\n    function getPrice() public view returns (uint256) {\n        (, int256 price, , , ) = ETHUSD_PRICE_FEED.latestRoundData();\n        // converting to wei\n        return uint256(price * 1e10);\n    }\n    ***/\n}\n",
  "sourcePath": "contracts/BuyMeACoffeeV2_1.sol",
  "type": "contract"
}